{
    "contractName": "ZombieFeeding",
    "abi": [
        {
            "anonymous": false,
            "inputs": [
                {
                    "indexed": false,
                    "internalType": "uint256",
                    "name": "zombieId",
                    "type": "uint256"
                },
                {
                    "indexed": false,
                    "internalType": "string",
                    "name": "name",
                    "type": "string"
                },
                {
                    "indexed": false,
                    "internalType": "uint256",
                    "name": "dna",
                    "type": "uint256"
                }
            ],
            "name": "NewZombie",
            "type": "event"
        },
        {
            "constant": false,
            "inputs": [
                {
                    "internalType": "string",
                    "name": "_name",
                    "type": "string"
                }
            ],
            "name": "createRandomZombie",
            "outputs": [],
            "payable": false,
            "stateMutability": "nonpayable",
            "type": "function"
        },
        {
            "constant": false,
            "inputs": [
                {
                    "internalType": "uint256",
                    "name": "_zombieId",
                    "type": "uint256"
                },
                {
                    "internalType": "uint256",
                    "name": "_targetDna",
                    "type": "uint256"
                }
            ],
            "name": "feedAndMultiply",
            "outputs": [],
            "payable": false,
            "stateMutability": "nonpayable",
            "type": "function"
        },
        {
            "constant": false,
            "inputs": [
                {
                    "internalType": "uint256",
                    "name": "_zombieId",
                    "type": "uint256"
                },
                {
                    "internalType": "uint256",
                    "name": "_kittyId",
                    "type": "uint256"
                }
            ],
            "name": "feedOnKitty",
            "outputs": [],
            "payable": false,
            "stateMutability": "nonpayable",
            "type": "function"
        },
        {
            "constant": true,
            "inputs": [
                {
                    "internalType": "uint256",
                    "name": "",
                    "type": "uint256"
                }
            ],
            "name": "zombieToOwner",
            "outputs": [
                {
                    "internalType": "address",
                    "name": "",
                    "type": "address"
                }
            ],
            "payable": false,
            "stateMutability": "view",
            "type": "function"
        },
        {
            "constant": true,
            "inputs": [
                {
                    "internalType": "uint256",
                    "name": "",
                    "type": "uint256"
                }
            ],
            "name": "zombies",
            "outputs": [
                {
                    "internalType": "string",
                    "name": "name",
                    "type": "string"
                },
                {
                    "internalType": "uint256",
                    "name": "dna",
                    "type": "uint256"
                }
            ],
            "payable": false,
            "stateMutability": "view",
            "type": "function"
        }
    ],
    "bytecode": "60806040526010600055662386f26fc10000600155600580546001600160a01b03199081167306012c8cf97bead5deae237070f9587f8e7a266d1791829055600680549091166001600160a01b039290921691909117905534801561006357600080fd5b50610701806100736000396000f3fe608060405234801561001057600080fd5b50600436106100575760003560e01c80630dedffb81461005c57806317a7f4cc146100815780632052465e146100a4578063528b7b8f146101405780637bff0a0114610179575b600080fd5b61007f6004803603604081101561007257600080fd5b508035906020013561021f565b005b61007f6004803603604081101561009757600080fd5b50803590602001356102b2565b6100c1600480360360208110156100ba57600080fd5b5035610341565b6040518080602001838152602001828103825284818151815260200191508051906020019080838360005b838110156101045781810151838201526020016100ec565b50505050905090810190601f1680156101315780820380516001836020036101000a031916815260200191505b50935050505060405180910390f35b61015d6004803603602081101561015657600080fd5b50356103f4565b604080516001600160a01b039092168252519081900360200190f35b61007f6004803603602081101561018f57600080fd5b8101906020810181356401000000008111156101aa57600080fd5b8201836020820111156101bc57600080fd5b803590602001918460018302840111640100000000831117156101de57600080fd5b91908080601f01602080910402602001604051908101604052809392919081815260200183838082843760009201919091525092955061040f945050505050565b6000828152600360205260409020546001600160a01b0316331461024257600080fd5b60006002838154811061025157fe5b90600052602060002090600202019050600154828161026c57fe5b06915060006002838360010154018161028157fe5b0490506102ac604051806040016040528060068152602001654e6f4e616d6560d01b8152508261044a565b50505050565b6006546040805163e98b7f4d60e01b81526004810184905290516000926001600160a01b03169163e98b7f4d91602480830192610140929190829003018186803b1580156102ff57600080fd5b505afa158015610313573d6000803e3d6000fd5b505050506040513d61014081101561032a57600080fd5b506101200151905061033c838261021f565b505050565b6002818154811061034e57fe5b60009182526020918290206002918202018054604080516001831615610100026000190190921693909304601f8101859004850282018501909352828152909350918391908301828280156103e45780601f106103b9576101008083540402835291602001916103e4565b820191906000526020600020905b8154815290600101906020018083116103c757829003601f168201915b5050505050908060010154905082565b6003602052600090815260409020546001600160a01b031681565b336000908152600460205260409020541561042957600080fd5b6000610434826105a8565b9050606481069003610446828261044a565b5050565b60408051808201909152828152602080820183905260028054600181810180845560008481528651805191979396929593949093027f405787fa12a823e0f2b7631cc41b3ba8828b3321ca811111fa75cd3aa3bb5ace01926104b0928492910190610631565b5060209182015160019182015592909103600081815260038352604080822080546001600160a01b0319163390811790915582526004845280822080549095019094558351828152938401869052606084840181815288519186019190915287519295507f88f026aacbbecc90c18411df4b1185fd8d9be2470f1962f192bf84a27d0704b7948694899489949293926080850192870191908190849084905b8381101561056757818101518382015260200161054f565b50505050905090810190601f1680156105945780820380516001836020036101000a031916815260200191505b5094505050505060405180910390a1505050565b600080826040516020018082805190602001908083835b602083106105de5780518252601f1990920191602091820191016105bf565b6001836020036101000a0380198251168184511680821785525050505050509050019150506040516020818303038152906040528051906020012060001c9050600154818161062957fe5b069392505050565b828054600181600116156101000203166002900490600052602060002090601f016020900481019282601f1061067257805160ff191683800117855561069f565b8280016001018555821561069f579182015b8281111561069f578251825591602001919060010190610684565b506106ab9291506106af565b5090565b6106c991905b808211156106ab57600081556001016106b5565b9056fea265627a7a7231582051cb53bda9f38519ab19f68119570fb6e0953bc65d7da78ab416d10be7a2256d64736f6c63430005110032",
    "sourcePath": "/home/dhruv/cryptozombies/zombiefeeding.sol",
    "compiler": {
        "name": "solc",
        "version": "0.5.17+commit.d19bba13"
    },
    "functionHashes": {
        "createRandomZombie(string)": "7bff0a01",
        "feedAndMultiply(uint256,uint256)": "0dedffb8",
        "feedOnKitty(uint256,uint256)": "17a7f4cc",
        "zombieToOwner(uint256)": "528b7b8f",
        "zombies(uint256)": "2052465e"
    },
    "gasEstimates": {
        "creation": {
            "codeDepositCost": "358600",
            "executionCost": "82116",
            "totalCost": "440716"
        },
        "external": {
            "createRandomZombie(string)": "infinite",
            "feedAndMultiply(uint256,uint256)": "infinite",
            "feedOnKitty(uint256,uint256)": "infinite",
            "zombieToOwner(uint256)": "1189",
            "zombies(uint256)": "infinite"
        }
    }
}